:0C0B57000A0C40792430191202780010BA
:100B1500C2B0C2B2740C250AF8E6F580740C250B38
:100B2500F8E6F5907F887E13120B4CD2B0D2B2C294
:100B3500B1C2B3740C2508F8E6F580740C2509F8E4
:070B4500E6F5907F887E13A6
:0B0B4C00EF1FAC0670011E4C70F6227B
:1008000075160075171E751900751A19C2A3C2A2B4
:10081000E51764044516606EAE16AF177C007D0ABE
:10082000120A8A8F0AAE16AF177C007D0A120A8A56
:100830008D08AE19AF1A7C007D0A120A8A8F0BAEA2
:1008400019AF1A7C007D0A120A8A8D09E4F518AFE7
:1008500018EF3395E0FED3EF940AEE648094805055
:100860000B120B15D2B1D2B3051880E3E51715179B
:1008700070021516E51A151A70021519E51AF470AA
:1008800003E519F4708AD2A2C2A1E517F47003E55A
:1008900016F46067AE16AF177C007D0A120A8A8FC5
:1008A0000AAE16AF177C007D0A120A8A8D08E4F59D
:1008B00018AF18EF3395E0FED3EF940AEE648094FE
:1008C00080502EC2B0C2B2740C250AF8E6F590F53D
:1008D00080120B48D2B0D2B2C2B1C2B3740C250898
:1008E000F8E6F590F580120B48D2B1D2B305188026
:1008F000C0E517151770931516808FD2A3D2A17576
:100900001600751719751900751A1EC2A0C2A5E543
:1009100017F47003E516F4606FE51A640445196076
:1009200067AE16AF177C007D0A120A8A8F0AAE16D0
:10093000AF177C007D0A120A8A8D08AE19AF1A7CA7
:10094000007D0A120A8A8F0BAE19AF1A7C007D0A4D
:10095000120A8A8D09E4F518AF18EF3395E0FED33B
:10096000EF940AEE64809480500B120B15D2B1D232
:10097000B3051880E3E517151770021516E51A156B
:100980001A7002151902090FD2A5C2A4E51AF47053
:1009900003E519F46063AE19AF1A7C007D0A120AF0
:1009A0008A8F0BAE19AF1A7C007D0A120A8A8D0954
:1009B000E4F518AF18EF3395E0FED3EF940AEE6438
:1009C000809480502AC2B2C2B0740C250BF8E6F5B0
:1009D00080120B46D2B2D2B0C2B3C2B1740C250998
:1009E000F8E6F580120B46D2B3D2B1051880C4E503
:0E09F0001A151A709715198093D2A4020800E8
:030000000209FEF4
:0C09FE00787FE4F6D8FD75811A020A45E6
:100A8A00C2D5EC30E709B2D5E4C39DFDE49CFCEE87
:100A9A0030E715B2D5E4C39FFFE49EFE120AC0C335
:100AAA00E49DFDE49CFC8003120AC030D507C3E430
:060ABA009FFFE49EFE22F6
:100A0A00020800E493A3F8E493A34003F68001F2FA
:100A1A0008DFF48029E493A3F85407240CC8C333ED
:100A2A00C4540F4420C8834004F456800146F6DFBC
:100A3A00E4800B0102040810204080900B57E47EEA
:100A4A00019360BCA3FF543F30E509541FFEE493B1
:100A5A00A360010ECF54C025E060A840B8E493A378
:100A6A00FAE493A3F8E493A3C8C582C8CAC583CAA3
:100A7A00F0A3C8C582C8CAC583CADFE9DEE780BE5B
:010B63000091
:100AC000BC000BBE0029EF8DF084FFADF022E4CC1A
:100AD000F875F008EF2FFFEE33FEEC33FCEE9DECE3
:100AE000984005FCEE9DFE0FD5F0E9E4CEFD22ED29
:100AF000F8F5F0EE8420D21CFEADF075F008EF2F73
:100B0000FFED33FD4007985006D5F0F222C398FD63
:050B10000FD5F0EA2200
:00000001FF
