:0C0B71000A0C40792430191202780010A0
:100B2F00C2B0C2B2740C250AF8E6F580740C250B1E
:100B3F00F8E6F5907F887E13120B66D2B0D2B2C260
:100B4F00B1C2B3740C2508F8E6F580740C2509F8CA
:070B5F00E6F5907F887E138C
:0B0B6600EF1FAC0670011E4C70F62261
:1008000075160075171E751900751A19C2A3C2A2B4
:10081000C2B4C2B7E51764044516606EAE16AF17D2
:100820007C007D0A120AA48F0AAE16AF177C007DE9
:100830000A120AA48D08AE19AF1A7C007D0A120AAA
:10084000A48F0BAE19AF1A7C007D0A120AA48D0981
:10085000E4F518AF18EF3395E0FED3EF940AEE6499
:10086000809480500B120B2FD2B1D2B3051880E3C5
:10087000E517151770021516E51A151A70021519E5
:10088000E51AF47003E519F4708AD2A2C2A1E51743
:10089000F47003E516F46070AE16AF177C007D0AA5
:1008A000120AA48F0AAE16AF177C007D0A120AA4A2
:1008B0008D08E4F518AF18EF3395E0FED3EF940AF6
:1008C000EE648094805032C2B0C2B2740C250AF833
:1008D000E6F590F580120B62D2B0D2B2C2B4C2B7C4
:1008E000C2B1C2B3740C2508F8E6F590F580120B7E
:1008F00062D2B1D2B3051880BCD2B4D2B7E5171515
:1009000017708B151602088ED2A3D2A1C2B5C2B63B
:10091000751600751719751900751A1EC2A0C2A5A3
:10092000E517F47003E516F4606FE51A64044519E1
:100930006067AE16AF177C007D0A120AA48F0AAE5C
:1009400016AF177C007D0A120AA48D08AE19AF1AE3
:100950007C007D0A120AA48F0BAE19AF1A7C007DB1
:100960000A120AA48D09E4F518AF18EF3395E0FEDA
:10097000D3EF940AEE64809480500B120B2FD2B107
:10098000D2B3051880E3E517151770021516E51A9E
:10099000151A70021519020920D2A5C2A4E51AF48D
:1009A0007003E519F4606CAE19AF1A7C007D0A1271
:1009B0000AA48F0BAE19AF1A7C007D0A120AA48D0F
:1009C00009E4F518AF18EF3395E0FED3EF940AEE83
:1009D00064809480502EC2B2C2B0740C250BF8E62D
:1009E000F580120B60D2B2D2B0C2B5C2B6C2B3C2E9
:1009F000B1740C2509F8E6F580120B60D2B3D2B1C0
:100A0000051880C0E51A151A70021519D2B5D2B6AC
:080A100002099DD2A4020800B6
:03000000020A18D9
:0C0A1800787FE4F6D8FD75811A020A5FB1
:100AA400C2D5EC30E709B2D5E4C39DFDE49CFCEE6D
:100AB40030E715B2D5E4C39FFFE49EFE120ADAC301
:100AC400E49DFDE49CFC8003120ADA30D507C3E4FC
:060AD4009FFFE49EFE22DC
:100A2400020800E493A3F8E493A34003F68001F2E0
:100A340008DFF48029E493A3F85407240CC8C333D3
:100A4400C4540F4420C8834004F456800146F6DFA2
:100A5400E4800B0102040810204080900B71E47EB6
:100A6400019360BCA3FF543F30E509541FFEE49397
:100A7400A360010ECF54C025E060A840B8E493A35E
:100A8400FAE493A3F8E493A3C8C582C8CAC583CA89
:100A9400F0A3C8C582C8CAC583CADFE9DEE780BE41
:010B7D000077
:100ADA00BC000BBE0029EF8DF084FFADF022E4CC00
:100AEA00F875F008EF2FFFEE33FEEC33FCEE9DECC9
:100AFA00984005FCEE9DFE0FD5F0E9E4CEFD22ED0F
:100B0A00F8F5F0EE8420D21CFEADF075F008EF2F58
:100B1A00FFED33FD4007985006D5F0F222C398FD49
:050B2A000FD5F0EA22E6
:00000001FF
