:0C0A2E000A0C40792430191202780010E4
:100A0200C2A0740C2509F8E6F5807F887E13120ACD
:100A120023D2A0C2A1740C2508F8E6F5807F887E57
:010A220013C0
:0B0A2300EF1FAC0670011E4C70F622A5
:10080000750A00750B1EC2A4AE0AAF0B7C007D0AF0
:100810001209778F09AE0AAF0B7C007D0A120977A7
:100820008D08E4F516AF16EF3395E0FED3EF940A8A
:10083000EE648094805009120A02D2A1051680E568
:10084000E50B150B7002150AE50B450A70BAD2A428
:10085000751601AF16EF3395E0FED3EF9403EE6407
:10086000809480500DC2A57FA07E86120A230516B3
:1008700080E1D2A5C2A6750A00750B0FAE0AAF0BB8
:100880007C007D0A1209778F09AE0AAF0B7C007DD0
:100890000A1209778D08E4F516AF16EF3395E0FEDE
:1008A000D3EF940AEE648094805009120A02D2A118
:1008B000051680E5E50B150B7002150AE50B450AD8
:1008C00070BA751601AF16EF3395E0FED3EF9403BF
:1008D000EE64809480500DC2A57FA07E86120A230C
:0B08E000051680E1D2A5D2A602080098
:030000000208EB08
:0C08EB00787FE4F6D8FD75811802093210
:10097700C2D5EC30E709B2D5E4C39DFDE49CFCEE9B
:1009870030E715B2D5E4C39FFFE49EFE1209ADC35D
:10099700E49DFDE49CFC80031209AD30D507C3E458
:0609A7009FFFE49EFE220A
:1008F700020800E493A3F8E493A34003F68001F20F
:1009070008DFF48029E493A3F85407240CC8C33301
:10091700C4540F4420C8834004F456800146F6DFD0
:10092700E4800B0102040810204080900A2EE47E28
:10093700019360BCA3FF543F30E509541FFEE493C5
:10094700A360010ECF54C025E060A840B8E493A38C
:10095700FAE493A3F8E493A3C8C582C8CAC583CAB7
:10096700F0A3C8C582C8CAC583CADFE9DEE780BE6F
:010A3A0000BB
:1009AD00BC000BBE0029EF8DF084FFADF022E4CC2E
:1009BD00F875F008EF2FFFEE33FEEC33FCEE9DECF7
:1009CD00984005FCEE9DFE0FD5F0E9E4CEFD22ED3D
:1009DD00F8F5F0EE8420D21CFEADF075F008EF2F87
:1009ED00FFED33FD4007985006D5F0F222C398FD78
:0509FD000FD5F0EA2215
:00000001FF
